{
  "contractName": "DecenOLAR",
  "abi": [
    {
      "anonymous": false,
      "inputs": [
        {
          "indexed": false,
          "internalType": "string",
          "name": "rideid",
          "type": "string"
        },
        {
          "indexed": false,
          "internalType": "address payable",
          "name": "riderid",
          "type": "address"
        },
        {
          "indexed": false,
          "internalType": "address payable",
          "name": "driverid",
          "type": "address"
        },
        {
          "indexed": false,
          "internalType": "string",
          "name": "source",
          "type": "string"
        },
        {
          "components": [
            {
              "internalType": "uint256",
              "name": "lat",
              "type": "uint256"
            },
            {
              "internalType": "uint256",
              "name": "long",
              "type": "uint256"
            }
          ],
          "indexed": false,
          "internalType": "struct DecenOLAR.coordinate",
          "name": "source_coords",
          "type": "tuple"
        },
        {
          "indexed": false,
          "internalType": "string",
          "name": "destination",
          "type": "string"
        },
        {
          "components": [
            {
              "internalType": "uint256",
              "name": "lat",
              "type": "uint256"
            },
            {
              "internalType": "uint256",
              "name": "long",
              "type": "uint256"
            }
          ],
          "indexed": false,
          "internalType": "struct DecenOLAR.coordinate",
          "name": "destination_coords",
          "type": "tuple"
        },
        {
          "indexed": false,
          "internalType": "uint256",
          "name": "distance",
          "type": "uint256"
        },
        {
          "indexed": false,
          "internalType": "uint256",
          "name": "cost",
          "type": "uint256"
        }
      ],
      "name": "rideFinalized",
      "type": "event"
    },
    {
      "anonymous": false,
      "inputs": [
        {
          "indexed": false,
          "internalType": "address payable",
          "name": "userid",
          "type": "address"
        },
        {
          "indexed": false,
          "internalType": "uint256",
          "name": "rating",
          "type": "uint256"
        },
        {
          "indexed": false,
          "internalType": "bool",
          "name": "isDriver",
          "type": "bool"
        },
        {
          "indexed": false,
          "internalType": "string",
          "name": "driving_license_number",
          "type": "string"
        },
        {
          "indexed": false,
          "internalType": "uint256",
          "name": "number_rides",
          "type": "uint256"
        }
      ],
      "name": "userCreated",
      "type": "event"
    },
    {
      "constant": true,
      "inputs": [
        {
          "internalType": "string",
          "name": "",
          "type": "string"
        }
      ],
      "name": "finalizedRides",
      "outputs": [
        {
          "internalType": "string",
          "name": "rideid",
          "type": "string"
        },
        {
          "internalType": "address payable",
          "name": "riderid",
          "type": "address"
        },
        {
          "internalType": "address payable",
          "name": "driverid",
          "type": "address"
        },
        {
          "internalType": "string",
          "name": "source",
          "type": "string"
        },
        {
          "components": [
            {
              "internalType": "uint256",
              "name": "lat",
              "type": "uint256"
            },
            {
              "internalType": "uint256",
              "name": "long",
              "type": "uint256"
            }
          ],
          "internalType": "struct DecenOLAR.coordinate",
          "name": "source_coords",
          "type": "tuple"
        },
        {
          "internalType": "string",
          "name": "destination",
          "type": "string"
        },
        {
          "components": [
            {
              "internalType": "uint256",
              "name": "lat",
              "type": "uint256"
            },
            {
              "internalType": "uint256",
              "name": "long",
              "type": "uint256"
            }
          ],
          "internalType": "struct DecenOLAR.coordinate",
          "name": "destination_coords",
          "type": "tuple"
        },
        {
          "internalType": "uint256",
          "name": "distance",
          "type": "uint256"
        },
        {
          "internalType": "uint256",
          "name": "cost",
          "type": "uint256"
        }
      ],
      "payable": false,
      "stateMutability": "view",
      "type": "function"
    },
    {
      "constant": true,
      "inputs": [
        {
          "internalType": "address",
          "name": "",
          "type": "address"
        }
      ],
      "name": "users",
      "outputs": [
        {
          "internalType": "address payable",
          "name": "userid",
          "type": "address"
        },
        {
          "internalType": "uint256",
          "name": "rating",
          "type": "uint256"
        },
        {
          "internalType": "bool",
          "name": "isDriver",
          "type": "bool"
        },
        {
          "internalType": "string",
          "name": "driving_license_number",
          "type": "string"
        },
        {
          "internalType": "uint256",
          "name": "number_rides",
          "type": "uint256"
        }
      ],
      "payable": false,
      "stateMutability": "view",
      "type": "function"
    },
    {
      "constant": false,
      "inputs": [
        {
          "internalType": "bool",
          "name": "_isDriver",
          "type": "bool"
        },
        {
          "internalType": "string",
          "name": "_driving_license_number",
          "type": "string"
        }
      ],
      "name": "addUser",
      "outputs": [],
      "payable": false,
      "stateMutability": "nonpayable",
      "type": "function"
    },
    {
      "constant": true,
      "inputs": [],
      "name": "getUser",
      "outputs": [
        {
          "internalType": "address payable",
          "name": "",
          "type": "address"
        },
        {
          "internalType": "uint256",
          "name": "",
          "type": "uint256"
        },
        {
          "internalType": "bool",
          "name": "",
          "type": "bool"
        },
        {
          "internalType": "string",
          "name": "",
          "type": "string"
        },
        {
          "internalType": "uint256",
          "name": "",
          "type": "uint256"
        }
      ],
      "payable": false,
      "stateMutability": "view",
      "type": "function"
    },
    {
      "constant": true,
      "inputs": [],
      "name": "checkUser",
      "outputs": [
        {
          "internalType": "bool",
          "name": "",
          "type": "bool"
        }
      ],
      "payable": false,
      "stateMutability": "view",
      "type": "function"
    },
    {
      "constant": true,
      "inputs": [
        {
          "internalType": "uint256",
          "name": "_distance",
          "type": "uint256"
        }
      ],
      "name": "getCalculatedCost",
      "outputs": [
        {
          "internalType": "uint256",
          "name": "",
          "type": "uint256"
        }
      ],
      "payable": false,
      "stateMutability": "view",
      "type": "function"
    }
  ],
  "bytecode": "0x608060405234801561001057600080fd5b50611020806100206000396000f3fe608060405234801561001057600080fd5b50600436106100625760003560e01c806351d1b9ab14610067578063783cf2e714610097578063832880e7146100cf578063a0814d7b146100f1578063a87430ba1461010d578063c156254714610141575b600080fd5b610081600480360361007c9190810190610bac565b61015f565b60405161008e9190610e24565b60405180910390f35b6100b160048036036100ac9190810190610b6b565b610199565b6040516100c699989796959493929190610d81565b60405180910390f35b6100d7610441565b6040516100e8959493929190610cb2565b60405180910390f35b61010b60048036036101069190810190610b17565b6105f2565b005b61012760048036036101229190810190610aee565b610778565b604051610138959493929190610d0c565b60405180910390f35b610149610873565b6040516101569190610d66565b60405180910390f35b6000806402540be400604b0290506402540be4006004028311156101905760126402540be400600402840302810190505b80915050919050565b600181805160208101820180518482526020830160208501208183528095505050505050600091509050806000018054600181600116156101000203166002900480601f01602080910402602001604051908101604052809291908181526020018280546001816001161561010002031660029004801561025b5780601f106102305761010080835404028352916020019161025b565b820191906000526020600020905b81548152906001019060200180831161023e57829003601f168201915b5050505050908060010160009054906101000a900473ffffffffffffffffffffffffffffffffffffffff16908060020160009054906101000a900473ffffffffffffffffffffffffffffffffffffffff1690806003018054600181600116156101000203166002900480601f0160208091040260200160405190810160405280929190818152602001828054600181600116156101000203166002900480156103455780601f1061031a57610100808354040283529160200191610345565b820191906000526020600020905b81548152906001019060200180831161032857829003601f168201915b505050505090806004016040518060400160405290816000820154815260200160018201548152505090806006018054600181600116156101000203166002900480601f0160208091040260200160405190810160405280929190818152602001828054600181600116156101000203166002900480156104075780601f106103dc57610100808354040283529160200191610407565b820191906000526020600020905b8154815290600101906020018083116103ea57829003601f168201915b50505050509080600701604051806040016040529081600082015481526020016001820154815250509080600901549080600a0154905089565b60008060006060600061045261091b565b6000803373ffffffffffffffffffffffffffffffffffffffff1673ffffffffffffffffffffffffffffffffffffffff1681526020019081526020016000206040518060a00160405290816000820160009054906101000a900473ffffffffffffffffffffffffffffffffffffffff1673ffffffffffffffffffffffffffffffffffffffff1673ffffffffffffffffffffffffffffffffffffffff168152602001600182015481526020016002820160009054906101000a900460ff16151515158152602001600382018054600181600116156101000203166002900480601f0160208091040260200160405190810160405280929190818152602001828054600181600116156101000203166002900480156105af5780601f10610584576101008083540402835291602001916105af565b820191906000526020600020905b81548152906001019060200180831161059257829003601f168201915b5050505050815260200160048201548152505090508060000151816020015182604001518360600151846080015181915095509550955095509550509091929394565b600073ffffffffffffffffffffffffffffffffffffffff163373ffffffffffffffffffffffffffffffffffffffff16141561062c57600080fd5b600115158215151480610643575060001515821515145b61064c57600080fd5b600081511161065a57600080fd5b6040518060a001604052803373ffffffffffffffffffffffffffffffffffffffff16815260200160058152602001831515815260200182815260200160008152506000803373ffffffffffffffffffffffffffffffffffffffff1673ffffffffffffffffffffffffffffffffffffffff16815260200190815260200160002060008201518160000160006101000a81548173ffffffffffffffffffffffffffffffffffffffff021916908373ffffffffffffffffffffffffffffffffffffffff1602179055506020820151816001015560408201518160020160006101000a81548160ff0219169083151502179055506060820151816003019080519060200190610766929190610962565b50608082015181600401559050505050565b60006020528060005260406000206000915090508060000160009054906101000a900473ffffffffffffffffffffffffffffffffffffffff16908060010154908060020160009054906101000a900460ff1690806003018054600181600116156101000203166002900480601f0160208091040260200160405190810160405280929190818152602001828054600181600116156101000203166002900480156108635780601f1061083857610100808354040283529160200191610863565b820191906000526020600020905b81548152906001019060200180831161084657829003601f168201915b5050505050908060040154905085565b60003373ffffffffffffffffffffffffffffffffffffffff166000803373ffffffffffffffffffffffffffffffffffffffff1673ffffffffffffffffffffffffffffffffffffffff16815260200190815260200160002060000160009054906101000a900473ffffffffffffffffffffffffffffffffffffffff1673ffffffffffffffffffffffffffffffffffffffff1614156109135760019050610918565b600090505b90565b6040518060a00160405280600073ffffffffffffffffffffffffffffffffffffffff1681526020016000815260200160001515815260200160608152602001600081525090565b828054600181600116156101000203166002900490600052602060002090601f016020900481019282601f106109a357805160ff19168380011785556109d1565b828001600101855582156109d1579182015b828111156109d05782518255916020019190600101906109b5565b5b5090506109de91906109e2565b5090565b610a0491905b80821115610a005760008160009055506001016109e8565b5090565b90565b600081359050610a1681610f98565b92915050565b600081359050610a2b81610faf565b92915050565b600082601f830112610a4257600080fd5b8135610a55610a5082610e6c565b610e3f565b91508082526020830160208301858383011115610a7157600080fd5b610a7c838284610f45565b50505092915050565b600082601f830112610a9657600080fd5b8135610aa9610aa482610e98565b610e3f565b91508082526020830160208301858383011115610ac557600080fd5b610ad0838284610f45565b50505092915050565b600081359050610ae881610fc6565b92915050565b600060208284031215610b0057600080fd5b6000610b0e84828501610a07565b91505092915050565b60008060408385031215610b2a57600080fd5b6000610b3885828601610a1c565b925050602083013567ffffffffffffffff811115610b5557600080fd5b610b6185828601610a85565b9150509250929050565b600060208284031215610b7d57600080fd5b600082013567ffffffffffffffff811115610b9757600080fd5b610ba384828501610a31565b91505092915050565b600060208284031215610bbe57600080fd5b6000610bcc84828501610ad9565b91505092915050565b610bde81610efd565b82525050565b610bed81610f0f565b82525050565b6000610bfe82610ecf565b610c088185610eda565b9350610c18818560208601610f54565b610c2181610f87565b840191505092915050565b6000610c3782610ec4565b610c418185610eda565b9350610c51818560208601610f54565b610c5a81610f87565b840191505092915050565b604082016000820151610c7b6000850182610c94565b506020820151610c8e6020850182610c94565b50505050565b610c9d81610f3b565b82525050565b610cac81610f3b565b82525050565b600060a082019050610cc76000830188610bd5565b610cd46020830187610ca3565b610ce16040830186610be4565b8181036060830152610cf38185610bf3565b9050610d026080830184610ca3565b9695505050505050565b600060a082019050610d216000830188610bd5565b610d2e6020830187610ca3565b610d3b6040830186610be4565b8181036060830152610d4d8185610c2c565b9050610d5c6080830184610ca3565b9695505050505050565b6000602082019050610d7b6000830184610be4565b92915050565b6000610160820190508181036000830152610d9c818c610c2c565b9050610dab602083018b610bd5565b610db8604083018a610bd5565b8181036060830152610dca8189610c2c565b9050610dd96080830188610c65565b81810360c0830152610deb8187610c2c565b9050610dfa60e0830186610c65565b610e08610120830185610ca3565b610e16610140830184610ca3565b9a9950505050505050505050565b6000602082019050610e396000830184610ca3565b92915050565b6000604051905081810181811067ffffffffffffffff82111715610e6257600080fd5b8060405250919050565b600067ffffffffffffffff821115610e8357600080fd5b601f19601f8301169050602081019050919050565b600067ffffffffffffffff821115610eaf57600080fd5b601f19601f8301169050602081019050919050565b600081519050919050565b600081519050919050565b600082825260208201905092915050565b6000610ef682610f1b565b9050919050565b6000610f0882610f1b565b9050919050565b60008115159050919050565b600073ffffffffffffffffffffffffffffffffffffffff82169050919050565b6000819050919050565b82818337600083830152505050565b60005b83811015610f72578082015181840152602081019050610f57565b83811115610f81576000848401525b50505050565b6000601f19601f8301169050919050565b610fa181610eeb565b8114610fac57600080fd5b50565b610fb881610f0f565b8114610fc357600080fd5b50565b610fcf81610f3b565b8114610fda57600080fd5b5056fea365627a7a72315820e9c4b830ffb140140e3a85924a3c03dee94537075a0eec17b1d1c3b85c18f9796c6578706572696d656e74616cf564736f6c63430005100040",
  "source": "pragma solidity >=0.5.0;\npragma experimental ABIEncoderV2;\n\ncontract DecenOLAR {\n    // this will be  used to remove decimal from [lat,long] values\n    uint256 private constant RESOLUTION = 10000000000;\n    // to store [lat,logn values as pairs\n    struct coordinate {\n        uint256 lat;\n        uint256 long;\n    }\n    // user details\n    struct user {\n        address payable userid; // this is the users public key\n        uint256 rating;\n        bool isDriver;\n        string driving_license_number;\n        uint256 number_rides;\n    }\n    //ride details\n    struct ride {\n        string rideid; // this will be the mongoDB hash\n        address payable riderid;\n        address payable driverid;\n        // source address as string and as [lat,long]\n        string source;\n        coordinate source_coords;\n        // source address as string and as [lat,long]\n        string destination;\n        coordinate destination_coords;\n        uint256 distance; // distance here is in meters\n        uint256 cost;\n    }\n\n    event userCreated(\n        address payable userid, // this is the users public key\n        uint256 rating,\n        bool isDriver,\n        string driving_license_number,\n        uint256 number_rides\n    );\n\n    event rideFinalized(\n        string rideid, // this will be the mongoDB hash\n        address payable riderid,\n        address payable driverid,\n        // source address as string and as [lat,long]\n        string source,\n        coordinate source_coords,\n        // source address as string and as [lat,long]\n        string destination,\n        coordinate destination_coords,\n        uint256 distance, // distance here is in meters\n        uint256 cost\n    );\n    // adress here is the public of the user\n    mapping(address => user) public users;\n\n    // key here is the mongoDB object id of the ride that is created.\n    mapping(string => ride) public finalizedRides;\n\n    function addUser(bool _isDriver, string memory _driving_license_number)\n        public\n    {\n        require(msg.sender != address(0x0));\n        require(_isDriver == true || _isDriver == false);\n        require(bytes(_driving_license_number).length > 0);\n        users[msg.sender] = user(\n            msg.sender,\n            5,\n            _isDriver,\n            _driving_license_number,\n            0\n        );\n    }\n\n    function getUser()\n        public\n        view\n        returns (\n            address payable,\n            uint256,\n            bool,\n            string memory,\n            uint256\n        )\n    {\n        user memory curUser = users[msg.sender];\n        return (\n            curUser.userid,\n            curUser.rating,\n            curUser.isDriver,\n            curUser.driving_license_number,\n            curUser.number_rides\n        );\n    }\n\n    function checkUser() public view returns (bool) {\n        if (users[msg.sender].userid == msg.sender) return true;\n        else return false;\n    }\n\n    // method to return the cost in INR based on the standard model for taxi pricing\n    // laid by the government of Karnataka.\n    function getCalculatedCost(uint256 _distance)\n        public\n        view\n        returns (uint256)\n    {\n        uint256 retVal = 75 * RESOLUTION;\n        if (_distance > 4 * RESOLUTION) {\n            retVal += (_distance - 4 * RESOLUTION) * 18;\n        }\n        return retVal;\n    }\n}\n",
  "sourcePath": "/home/abhay/abhay_tech/codeFiles/miniProject/smart-contract/contracts/DecenOLAR.sol",
  "compiler": {
    "name": "solc",
    "version": "0.5.16+commit.9c3226ce.Emscripten.clang"
  },
  "schemaVersion": "3.3.4",
  "updatedAt": "2021-04-12T21:19:29.681Z",
  "networkType": "ethereum",
  "devdoc": {
    "methods": {}
  },
  "userdoc": {
    "methods": {}
  }
}