{
  "contractName": "DecenOLAR",
  "abi": [
    {
      "anonymous": false,
      "inputs": [
        {
          "indexed": false,
          "internalType": "string",
          "name": "rideid",
          "type": "string"
        },
        {
          "indexed": false,
          "internalType": "address payable",
          "name": "riderid",
          "type": "address"
        },
        {
          "indexed": false,
          "internalType": "address payable",
          "name": "driverid",
          "type": "address"
        },
        {
          "indexed": false,
          "internalType": "string",
          "name": "source",
          "type": "string"
        },
        {
          "components": [
            {
              "internalType": "uint256",
              "name": "lat",
              "type": "uint256"
            },
            {
              "internalType": "uint256",
              "name": "long",
              "type": "uint256"
            }
          ],
          "indexed": false,
          "internalType": "struct DecenOLAR.coordinate",
          "name": "source_coords",
          "type": "tuple"
        },
        {
          "indexed": false,
          "internalType": "string",
          "name": "destination",
          "type": "string"
        },
        {
          "components": [
            {
              "internalType": "uint256",
              "name": "lat",
              "type": "uint256"
            },
            {
              "internalType": "uint256",
              "name": "long",
              "type": "uint256"
            }
          ],
          "indexed": false,
          "internalType": "struct DecenOLAR.coordinate",
          "name": "destination_coords",
          "type": "tuple"
        },
        {
          "indexed": false,
          "internalType": "uint256",
          "name": "distance",
          "type": "uint256"
        },
        {
          "indexed": false,
          "internalType": "uint256",
          "name": "cost",
          "type": "uint256"
        }
      ],
      "name": "rideFinalized",
      "type": "event"
    },
    {
      "anonymous": false,
      "inputs": [
        {
          "indexed": false,
          "internalType": "address payable",
          "name": "userid",
          "type": "address"
        },
        {
          "indexed": false,
          "internalType": "uint256",
          "name": "rating",
          "type": "uint256"
        },
        {
          "indexed": false,
          "internalType": "bool",
          "name": "isDriver",
          "type": "bool"
        },
        {
          "indexed": false,
          "internalType": "string",
          "name": "driving_license_number",
          "type": "string"
        },
        {
          "indexed": false,
          "internalType": "uint256",
          "name": "number_rides",
          "type": "uint256"
        }
      ],
      "name": "userCreated",
      "type": "event"
    },
    {
      "constant": true,
      "inputs": [
        {
          "internalType": "string",
          "name": "",
          "type": "string"
        }
      ],
      "name": "finalizedRides",
      "outputs": [
        {
          "internalType": "string",
          "name": "rideid",
          "type": "string"
        },
        {
          "internalType": "address payable",
          "name": "riderid",
          "type": "address"
        },
        {
          "internalType": "address payable",
          "name": "driverid",
          "type": "address"
        },
        {
          "internalType": "string",
          "name": "source",
          "type": "string"
        },
        {
          "components": [
            {
              "internalType": "uint256",
              "name": "lat",
              "type": "uint256"
            },
            {
              "internalType": "uint256",
              "name": "long",
              "type": "uint256"
            }
          ],
          "internalType": "struct DecenOLAR.coordinate",
          "name": "source_coords",
          "type": "tuple"
        },
        {
          "internalType": "string",
          "name": "destination",
          "type": "string"
        },
        {
          "components": [
            {
              "internalType": "uint256",
              "name": "lat",
              "type": "uint256"
            },
            {
              "internalType": "uint256",
              "name": "long",
              "type": "uint256"
            }
          ],
          "internalType": "struct DecenOLAR.coordinate",
          "name": "destination_coords",
          "type": "tuple"
        },
        {
          "internalType": "uint256",
          "name": "distance",
          "type": "uint256"
        },
        {
          "internalType": "uint256",
          "name": "cost",
          "type": "uint256"
        }
      ],
      "payable": false,
      "stateMutability": "view",
      "type": "function"
    },
    {
      "constant": true,
      "inputs": [
        {
          "internalType": "address",
          "name": "",
          "type": "address"
        }
      ],
      "name": "users",
      "outputs": [
        {
          "internalType": "address payable",
          "name": "userid",
          "type": "address"
        },
        {
          "internalType": "uint256",
          "name": "rating",
          "type": "uint256"
        },
        {
          "internalType": "bool",
          "name": "isDriver",
          "type": "bool"
        },
        {
          "internalType": "string",
          "name": "driving_license_number",
          "type": "string"
        },
        {
          "internalType": "uint256",
          "name": "number_rides",
          "type": "uint256"
        }
      ],
      "payable": false,
      "stateMutability": "view",
      "type": "function"
    },
    {
      "constant": false,
      "inputs": [
        {
          "internalType": "bool",
          "name": "_isDriver",
          "type": "bool"
        },
        {
          "internalType": "string",
          "name": "_driving_license_number",
          "type": "string"
        }
      ],
      "name": "addUser",
      "outputs": [],
      "payable": false,
      "stateMutability": "nonpayable",
      "type": "function"
    },
    {
      "constant": true,
      "inputs": [],
      "name": "getUser",
      "outputs": [
        {
          "internalType": "address payable",
          "name": "",
          "type": "address"
        },
        {
          "internalType": "uint256",
          "name": "",
          "type": "uint256"
        },
        {
          "internalType": "bool",
          "name": "",
          "type": "bool"
        },
        {
          "internalType": "string",
          "name": "",
          "type": "string"
        },
        {
          "internalType": "uint256",
          "name": "",
          "type": "uint256"
        }
      ],
      "payable": false,
      "stateMutability": "view",
      "type": "function"
    },
    {
      "constant": true,
      "inputs": [],
      "name": "checkUser",
      "outputs": [
        {
          "internalType": "bool",
          "name": "",
          "type": "bool"
        }
      ],
      "payable": false,
      "stateMutability": "view",
      "type": "function"
    },
    {
      "constant": false,
      "inputs": [
        {
          "internalType": "address payable",
          "name": "driver",
          "type": "address"
        }
      ],
      "name": "finishTransaction",
      "outputs": [],
      "payable": true,
      "stateMutability": "payable",
      "type": "function"
    },
    {
      "constant": true,
      "inputs": [
        {
          "internalType": "uint256",
          "name": "_distance",
          "type": "uint256"
        }
      ],
      "name": "getCalculatedCost",
      "outputs": [
        {
          "internalType": "uint256",
          "name": "",
          "type": "uint256"
        }
      ],
      "payable": false,
      "stateMutability": "view",
      "type": "function"
    }
  ],
  "bytecode": "0x608060405234801561001057600080fd5b50611137806100206000396000f3fe6080604052600436106100705760003560e01c8063832880e71161004e578063832880e714610113578063a0814d7b14610142578063a87430ba1461016b578063c1562547146101ac57610070565b806334cc9e411461007557806351d1b9ab14610091578063783cf2e7146100ce575b600080fd5b61008f600480360361008a9190810190610bee565b6101d7565b005b34801561009d57600080fd5b506100b860048036036100b39190810190610cac565b610221565b6040516100c59190610f24565b60405180910390f35b3480156100da57600080fd5b506100f560048036036100f09190810190610c6b565b61025b565b60405161010a99989796959493929190610e81565b60405180910390f35b34801561011f57600080fd5b50610128610503565b604051610139959493929190610db2565b60405180910390f35b34801561014e57600080fd5b5061016960048036036101649190810190610c17565b6106b4565b005b34801561017757600080fd5b50610192600480360361018d9190810190610bc5565b61083a565b6040516101a3959493929190610e0c565b60405180910390f35b3480156101b857600080fd5b506101c1610935565b6040516101ce9190610e66565b60405180910390f35b8073ffffffffffffffffffffffffffffffffffffffff166108fc349081150290604051600060405180830381858888f1935050505015801561021d573d6000803e3d6000fd5b5050565b6000806402540be400604b0290506402540be4006004028311156102525760126402540be400600402840302810190505b80915050919050565b600181805160208101820180518482526020830160208501208183528095505050505050600091509050806000018054600181600116156101000203166002900480601f01602080910402602001604051908101604052809291908181526020018280546001816001161561010002031660029004801561031d5780601f106102f25761010080835404028352916020019161031d565b820191906000526020600020905b81548152906001019060200180831161030057829003601f168201915b5050505050908060010160009054906101000a900473ffffffffffffffffffffffffffffffffffffffff16908060020160009054906101000a900473ffffffffffffffffffffffffffffffffffffffff1690806003018054600181600116156101000203166002900480601f0160208091040260200160405190810160405280929190818152602001828054600181600116156101000203166002900480156104075780601f106103dc57610100808354040283529160200191610407565b820191906000526020600020905b8154815290600101906020018083116103ea57829003601f168201915b505050505090806004016040518060400160405290816000820154815260200160018201548152505090806006018054600181600116156101000203166002900480601f0160208091040260200160405190810160405280929190818152602001828054600181600116156101000203166002900480156104c95780601f1061049e576101008083540402835291602001916104c9565b820191906000526020600020905b8154815290600101906020018083116104ac57829003601f168201915b50505050509080600701604051806040016040529081600082015481526020016001820154815250509080600901549080600a0154905089565b6000806000606060006105146109dd565b6000803373ffffffffffffffffffffffffffffffffffffffff1673ffffffffffffffffffffffffffffffffffffffff1681526020019081526020016000206040518060a00160405290816000820160009054906101000a900473ffffffffffffffffffffffffffffffffffffffff1673ffffffffffffffffffffffffffffffffffffffff1673ffffffffffffffffffffffffffffffffffffffff168152602001600182015481526020016002820160009054906101000a900460ff16151515158152602001600382018054600181600116156101000203166002900480601f0160208091040260200160405190810160405280929190818152602001828054600181600116156101000203166002900480156106715780601f1061064657610100808354040283529160200191610671565b820191906000526020600020905b81548152906001019060200180831161065457829003601f168201915b5050505050815260200160048201548152505090508060000151816020015182604001518360600151846080015181915095509550955095509550509091929394565b600073ffffffffffffffffffffffffffffffffffffffff163373ffffffffffffffffffffffffffffffffffffffff1614156106ee57600080fd5b600115158215151480610705575060001515821515145b61070e57600080fd5b600081511161071c57600080fd5b6040518060a001604052803373ffffffffffffffffffffffffffffffffffffffff16815260200160058152602001831515815260200182815260200160008152506000803373ffffffffffffffffffffffffffffffffffffffff1673ffffffffffffffffffffffffffffffffffffffff16815260200190815260200160002060008201518160000160006101000a81548173ffffffffffffffffffffffffffffffffffffffff021916908373ffffffffffffffffffffffffffffffffffffffff1602179055506020820151816001015560408201518160020160006101000a81548160ff0219169083151502179055506060820151816003019080519060200190610828929190610a24565b50608082015181600401559050505050565b60006020528060005260406000206000915090508060000160009054906101000a900473ffffffffffffffffffffffffffffffffffffffff16908060010154908060020160009054906101000a900460ff1690806003018054600181600116156101000203166002900480601f0160208091040260200160405190810160405280929190818152602001828054600181600116156101000203166002900480156109255780601f106108fa57610100808354040283529160200191610925565b820191906000526020600020905b81548152906001019060200180831161090857829003601f168201915b5050505050908060040154905085565b60003373ffffffffffffffffffffffffffffffffffffffff166000803373ffffffffffffffffffffffffffffffffffffffff1673ffffffffffffffffffffffffffffffffffffffff16815260200190815260200160002060000160009054906101000a900473ffffffffffffffffffffffffffffffffffffffff1673ffffffffffffffffffffffffffffffffffffffff1614156109d557600190506109da565b600090505b90565b6040518060a00160405280600073ffffffffffffffffffffffffffffffffffffffff1681526020016000815260200160001515815260200160608152602001600081525090565b828054600181600116156101000203166002900490600052602060002090601f016020900481019282601f10610a6557805160ff1916838001178555610a93565b82800160010185558215610a93579182015b82811115610a92578251825591602001919060010190610a77565b5b509050610aa09190610aa4565b5090565b610ac691905b80821115610ac2576000816000905550600101610aaa565b5090565b90565b600081359050610ad881611098565b92915050565b600081359050610aed816110af565b92915050565b600081359050610b02816110c6565b92915050565b600082601f830112610b1957600080fd5b8135610b2c610b2782610f6c565b610f3f565b91508082526020830160208301858383011115610b4857600080fd5b610b53838284611045565b50505092915050565b600082601f830112610b6d57600080fd5b8135610b80610b7b82610f98565b610f3f565b91508082526020830160208301858383011115610b9c57600080fd5b610ba7838284611045565b50505092915050565b600081359050610bbf816110dd565b92915050565b600060208284031215610bd757600080fd5b6000610be584828501610ac9565b91505092915050565b600060208284031215610c0057600080fd5b6000610c0e84828501610ade565b91505092915050565b60008060408385031215610c2a57600080fd5b6000610c3885828601610af3565b925050602083013567ffffffffffffffff811115610c5557600080fd5b610c6185828601610b5c565b9150509250929050565b600060208284031215610c7d57600080fd5b600082013567ffffffffffffffff811115610c9757600080fd5b610ca384828501610b08565b91505092915050565b600060208284031215610cbe57600080fd5b6000610ccc84828501610bb0565b91505092915050565b610cde81610ffd565b82525050565b610ced8161100f565b82525050565b6000610cfe82610fcf565b610d088185610fda565b9350610d18818560208601611054565b610d2181611087565b840191505092915050565b6000610d3782610fc4565b610d418185610fda565b9350610d51818560208601611054565b610d5a81611087565b840191505092915050565b604082016000820151610d7b6000850182610d94565b506020820151610d8e6020850182610d94565b50505050565b610d9d8161103b565b82525050565b610dac8161103b565b82525050565b600060a082019050610dc76000830188610cd5565b610dd46020830187610da3565b610de16040830186610ce4565b8181036060830152610df38185610cf3565b9050610e026080830184610da3565b9695505050505050565b600060a082019050610e216000830188610cd5565b610e2e6020830187610da3565b610e3b6040830186610ce4565b8181036060830152610e4d8185610d2c565b9050610e5c6080830184610da3565b9695505050505050565b6000602082019050610e7b6000830184610ce4565b92915050565b6000610160820190508181036000830152610e9c818c610d2c565b9050610eab602083018b610cd5565b610eb8604083018a610cd5565b8181036060830152610eca8189610d2c565b9050610ed96080830188610d65565b81810360c0830152610eeb8187610d2c565b9050610efa60e0830186610d65565b610f08610120830185610da3565b610f16610140830184610da3565b9a9950505050505050505050565b6000602082019050610f396000830184610da3565b92915050565b6000604051905081810181811067ffffffffffffffff82111715610f6257600080fd5b8060405250919050565b600067ffffffffffffffff821115610f8357600080fd5b601f19601f8301169050602081019050919050565b600067ffffffffffffffff821115610faf57600080fd5b601f19601f8301169050602081019050919050565b600081519050919050565b600081519050919050565b600082825260208201905092915050565b6000610ff68261101b565b9050919050565b60006110088261101b565b9050919050565b60008115159050919050565b600073ffffffffffffffffffffffffffffffffffffffff82169050919050565b6000819050919050565b82818337600083830152505050565b60005b83811015611072578082015181840152602081019050611057565b83811115611081576000848401525b50505050565b6000601f19601f8301169050919050565b6110a181610feb565b81146110ac57600080fd5b50565b6110b881610ffd565b81146110c357600080fd5b50565b6110cf8161100f565b81146110da57600080fd5b50565b6110e68161103b565b81146110f157600080fd5b5056fea365627a7a723158209e95d9eb7be8b8e94e10ffe8177048fef43667ddc1d00de9fb127a2184d98cfa6c6578706572696d656e74616cf564736f6c63430005100040",
  "source": "pragma solidity >=0.5.0;\npragma experimental ABIEncoderV2;\n\ncontract DecenOLAR {\n    // this will be  used to remove decimal from [lat,long] values\n    uint256 private constant RESOLUTION = 10000000000;\n    // to store [lat,logn values as pairs\n    struct coordinate {\n        uint256 lat;\n        uint256 long;\n    }\n    // user details\n    struct user {\n        address payable userid; // this is the users public key\n        uint256 rating;\n        bool isDriver;\n        string driving_license_number;\n        uint256 number_rides;\n    }\n    //ride details\n    struct ride {\n        string rideid; // this will be the mongoDB hash\n        address payable riderid;\n        address payable driverid;\n        // source address as string and as [lat,long]\n        string source;\n        coordinate source_coords;\n        // source address as string and as [lat,long]\n        string destination;\n        coordinate destination_coords;\n        uint256 distance; // distance here is in meters\n        uint256 cost;\n    }\n\n    event userCreated(\n        address payable userid, // this is the users public key\n        uint256 rating,\n        bool isDriver,\n        string driving_license_number,\n        uint256 number_rides\n    );\n\n    event rideFinalized(\n        string rideid, // this will be the mongoDB hash\n        address payable riderid,\n        address payable driverid,\n        // source address as string and as [lat,long]\n        string source,\n        coordinate source_coords,\n        // source address as string and as [lat,long]\n        string destination,\n        coordinate destination_coords,\n        uint256 distance, // distance here is in meters\n        uint256 cost\n    );\n    // adress here is the public of the user\n    mapping(address => user) public users;\n\n    // key here is the mongoDB object id of the ride that is created.\n    mapping(string => ride) public finalizedRides;\n\n    function addUser(bool _isDriver, string memory _driving_license_number)\n        public\n    {\n        require(msg.sender != address(0x0));\n        require(_isDriver == true || _isDriver == false);\n        require(bytes(_driving_license_number).length > 0);\n        users[msg.sender] = user(\n            msg.sender,\n            5,\n            _isDriver,\n            _driving_license_number,\n            0\n        );\n    }\n\n    function getUser()\n        public\n        view\n        returns (\n            address payable,\n            uint256,\n            bool,\n            string memory,\n            uint256\n        )\n    {\n        user memory curUser = users[msg.sender];\n        return (\n            curUser.userid,\n            curUser.rating,\n            curUser.isDriver,\n            curUser.driving_license_number,\n            curUser.number_rides\n        );\n    }\n\n    function checkUser() public view returns (bool) {\n        if (users[msg.sender].userid == msg.sender) return true;\n        else return false;\n    }\n\n    function finishTransaction(address payable driver) public payable {\n        // transact the ride amount\n        (driver).transfer(msg.value);\n    }\n\n    // method to return the cost in INR based on the standard model for taxi pricing\n    // laid by the government of Karnataka.\n    function getCalculatedCost(uint256 _distance)\n        public\n        view\n        returns (uint256)\n    {\n        uint256 retVal = 75 * RESOLUTION;\n        if (_distance > 4 * RESOLUTION) {\n            retVal += (_distance - 4 * RESOLUTION) * 18;\n        }\n        return retVal;\n    }\n}\n",
  "sourcePath": "/home/abhay/abhay_tech/codeFiles/miniProject (copy)/smart-contract/contracts/DecenOLAR.sol",
  "compiler": {
    "name": "solc",
    "version": "0.5.16+commit.9c3226ce.Emscripten.clang"
  },
  "schemaVersion": "3.3.4",
  "updatedAt": "2021-06-22T18:37:15.669Z",
  "networkType": "ethereum",
  "devdoc": {
    "methods": {}
  },
  "userdoc": {
    "methods": {}
  }
}